:020000040800F2
:1000000030050020D50000080101000803010008A8
:1000100000000000000000000000000000000000E0
:1000200000000000000000000000000005010008C2
:10003000000000000000000007010008A1110008F6
:100040000B0100080B0100080B0100080B01000860
:100050000B0100080B0100080B0100080B01000850
:100060000B0100080B0100080B0100080B01000840
:100070000B0100080B0100080B0100081512000815
:100080006D12000800000000000000000B010008D5
:10009000000000000B0100080B0100080B01000824
:1000A000000000000B0100080B0100083D140008CF
:1000B0000B0100080000000001060008000000001D
:1000C0000348854600F08EF800480047711A000882
:1000D000300500200D4880F308880D480D49016067
:1000E0000D480168090E0D4A914205D10C48094995
:1000F00001600C480C4901600C4880470C480047DF
:10010000FEE7FEE7FEE7FEE7FEE7FEE7300500203C
:100110006020024001000000040000001F000000F9
:10012000181002400000014000000000A911000862
:10013000C100000830B50B460146002020220124F2
:1001400009E00D46D5409D4205D31D469540491B0B
:100150002546954040191546521E002DF1DC30BD54
:10016000D2B201E00270401C491EFBD2704700224F
:10017000F6E710B513460A4604461946FFF7F0FFA6
:10018000204610BDF0B51FB40646002082B00546DB
:100190004024019100901BE0019922460F46304611
:1001A00000F042F8049A059B801A994110D310463A
:1001B0001946224600F028F8361A8F410197224648
:1001C00001200021009F00F01FF838184D410090D9
:1001D0002046641E0028DFDC019B00982946324639
:1001E00007B0F0BD064C0125064E05E0E36807CCDC
:1001F0002B430C3C98471034B442F7D3FFF764FF0D
:100200000C1B00082C1B000810B5202A04DB01463B
:10021000203A9140002010BD914020239C1A0346B3
:10022000E3401943904010BD10B5202A04DB084676
:10023000203AD040002110BD0B46D340D0402024AE
:10024000A21A91400843194610BDFFB583B00C4671
:10025000029400200190002726E000261CE0721C7A
:10026000039951430846791CFFF764FF0546A542F0
:1002700001D9281B00E0601B05460298A84204D95A
:10028000029505980670069807700298002802D11A
:100290000120019002E0761C402EE0D300BF0198BF
:1002A000002800D002E07F1C042FD6D300BF0298A4
:1002B00007B0F0BDF7B584B0054616460396012099
:1002C000029000200190002700BF002EFDD005986D
:1002D0000028FAD031460598FFF72CFF07467F0823
:1002E000192413E021463846FFF724FF6043381AEB
:1002F00001900198002801D1029409E00399019826
:10030000884202D2019803900294641E032CE9D81B
:1003100000BF0020287038460299FFF70BFF401EEF
:1003200068700299C81E0321FFF704FFE870029865
:10033000C01EE978401A287107B0F0BD4168042258
:100340001143416070470000FFB586B007460020AA
:100350000190384600F0B0FB04460221079808409F
:10036000002801D001200190002F36D03846F9171F
:10037000490F09184905090E0391F917490F091882
:10038000C910C900791AC9B2029103998800584965
:10039000401800900198002808D0009800680122B9
:1003A00002998A4010430099086007E000980168AC
:1003B00001220298824091430098016003988000D6
:1003C0004B490C31401800900098006801220299B6
:1003D0008A4010430099086013E00198002808D073
:1003E0004348803800680821084341498039086043
:1003F00007E03F4880380068082188433C4980393D
:100400000860019801282AD10798C007C00F00286A
:1004100008D008980068C60009980068C500072041
:10042000054307E0089800884605099800884505B7
:1004300030480543300E20603002000E606030040A
:10044000000EA060F0B2E060280E20612802000ECD
:1004500060612804000EA061E8B2E06145E0089800
:1004600006680998056808980068401C0590099876
:100470000068401C04900798C007C00F00280ED0E9
:10048000F600ED000598C00005900498C0000490A7
:100490001948054318490498084304900DE076056F
:1004A0006D05059840050590049840050490114895
:1004B00005431049049808430490300E2060300230
:1004C000000E6060280E20612802000E6061059811
:1004D000000EA06005980002000EE0600498000E77
:1004E000A06104980002000EE0610AB0F0BD0000B7
:1004F00080640040FFFF1F00FFFF000010B58EB0BA
:10050000044600F03DF801211C4800F0C3F98021A9
:100510001A4800F09BF805A800F094FB0AA800F028
:1005200055F922460AA80799FFF7C4FE002108A83A
:100530008172817341730AA800F09CF80120039036
:100540000020019001AB03AA0221FFF7FDFE01216B
:10055000084600F07FF80121802000F07BF801219F
:10056000082000F077F80121402000F073F8002106
:10057000024800F08FF90EB010BD0000006400408A
:100580001CB50121480600F03DFB0121084600F0A2
:1005900049FB0121480400F025FB01A800F084FA82
:1005A0000121C90268468180012181710421C17144
:1005B00001A90920C00600F009FA012109036846D3
:1005C0008180012181711821C17101A90920C00612
:1005D00000F0FCF904220C210920C00600F043FAC7
:1005E00004220B210920C00600F03DFA1E216846B6
:1005F0000170002141700121817000F0ABFA1CBD37
:1006000070B50F48C4688568E007C00F002805D0A2
:100610000C4800F075F801200B49087002202840B2
:1006200000280BD006484068202108430449486050
:1006300008464068082108430149486070BD000031
:10064000006400401C0100202C000020C26F0A43FF
:10065000C2677047002905D0054A12690243044B5E
:100660001A6104E0024A12698243014B1A61704721
:100670000064004001788901427811431F4A91616A
:100680008178C901C27812011143027911431B4AD2
:10069000D1614179012906D111460968022211432D
:1006A000164A116005E01549096802229143134A70
:1006B00011608179012906D110490968042211438A
:1006C0000E4A116005E00D490968042291430B4A66
:1006D0001160C179012906D1084909681022114326
:1006E000064A116005E00549096810229143034A52
:1006F0001160024AC1685163704700000064004005
:1007000010B50346304800684004000E18712E48AA
:1007100000684006C00F58712B4800680007000FA2
:1007200098711879012820D0274880684409264804
:100730004068C00004431C602348C068D871224848
:10074000006918722048406958721F488069987281
:100750001D48C069D8721C48006A18731A48406A5C
:1007600058731948806A987329E017480069F8217E
:100770000840C4081448C068400104431248806817
:100780004003044310484068400504431C600E4881
:100790004069D8710C48806918720B48C06958725A
:1007A0000948006A98720848406AD8720648806A08
:1007B00018730548C06A58730348006B9873024861
:1007C0004038FFF7BBFD10BD406400400021417080
:1007D00001700171C170817041718171C1710172CB
:1007E0009621C160704700000179C90142799201E8
:1007F000114382791143264A1160017901291AD0E7
:10080000C17851608178E0221140214A916041799C
:1008100001292CD0C179D160017A1161417A5161ED
:10082000817A9161C17AD161017B1162417B516210
:10083000817B91621BE0C178154A5160817891609B
:100840004178D16001781161417901290FD0C179D6
:100850005161017A9161417AD161817A1162C17AE3
:100860005162017B9162417BD162817B11630849B6
:100870004039096804221140002904D01221044A99
:10088000403A516003E00321014A403A5160704709
:1008900040640040012904D1026801231A43026028
:1008A00003E00268520852000260704710B5044627
:1008B0005AE02E48808C002808D12C48808C2B4987
:1008C0004039095C2948808C21543EE02748808CBF
:1008D000642802D1002125488184254800783228E7
:1008E00007DB64212348FFF742FC00202049087001
:1008F00010BD1E48808C1D494039085C002800D17D
:10090000F6E71A48808C19494039085C0A2814D146
:100910001648808C095C1548808C21541348808CC3
:10092000401C81B211488184818C4038FFF71FFC44
:1009300000200F4908700120DAE70C48808C0B4931
:100940004039095C0948808C21540848808C401C3F
:1009500081B206488184818C4038FFF708FC044846
:100960000078401C02490870A3E7000090000020B6
:1009700028000020B800002010B57D21C9001048D3
:100980000068FFF7D7FB0446601E0E49884201D974
:1009900001200CE0601E0C4948610321081F00F093
:1009A0006BFE0020084988610720086100200028AC
:1009B00001D000BFFEE70021481E00F05DFE10BD23
:1009C00000000020FFFFFF0000E000E0F8B5024655
:1009D000CD782F073F0FCD7810263540002D01D060
:1009E0008D782F431446002011E085062B0E0D88CC
:1009F000012686403540002D07D025680F269E40F1
:100A0000B5433E469E4035432560451CE8B2082864
:100A1000EBDB141D0D882D120095002011E08506DA
:100A20002B0E01258540009E3540002D07D02568FE
:100A30000F269E40B5433E469E4035432560451CEB
:100A4000E8B20828EBDBCD78282D04D155690E8853
:100A50003543556106E0CD78482D03D115690E88E0
:100A600035431561F8BD70B54D07EB0E082902DA64
:100A70000546203501E0054624352C460F269E40CC
:100A80002568B54316469E403543256070BD024635
:100A9000D0680840002801D0012070470020FCE702
:100AA00041617047016170470021C9430180022103
:100AB00081700421C17070470146002901D10448AA
:100AC00004E04A1E5201024B5833D0187047000010
:100AD0004064004008B50121880400F083F801213A
:100AE000480400F07FF86846FFF7DEFF0121490265
:100AF00068460180012181701021C17069460D484E
:100B0000FFF764FF082168460180012181701021F0
:100B1000C17069460920C006FFF758FF012149024C
:100B20000448FFF7BFFF08210920C006FFF7BAFFFE
:100B300008BD000000040048F8B504460D461646FE
:100B400068460470457086700121C17000F04EFF48
:100B5000F8BD00008178002925D017490322120230
:100B60008918027892109200895802789207D30E61
:100B7000FF229A40914342789207120E03789B0716
:100B8000DB0E9A4011430C4A03231B02D218037850
:100B90009B109B00D1500178CA06D20E01219140D2
:100BA000054A116007E00178CA06D20E0121914082
:100BB000014A80321160704700E100E010B5002169
:100BC0000648C184818464210548FFF7D0FA642176
:100BD00002484038FFF7CBFA10BD0000900000201B
:100BE000B8000020002905D0054A52690243044B91
:100BF0005A6104E0024A52698243014B5A617047CC
:100C000000100240002905D0054AD2690243044B76
:100C1000DA6104E0024AD2698243014BDA6170472B
:100C200000100240002905D0054A92690243044B96
:100C30009A6104E0024A92698243014B9A617047CB
:100C40000010024038B504460DA00068009000F086
:100C500051F8206000F01AF8606000F027F8A060FA
:100C600000F036F8E060074A5268074B1A40120954
:100C70006B46995CE068FFF75DFA206138BD0000C3
:100C800002040608001002407040000010B500F099
:100C900031F804494968F02211400909024A515CBF
:100CA000C84010BD001002401400002010B5FFF72E
:100CB000EDFF05494968072212021140090A034A5B
:100CC000515CC84010BD000000100240140000201C
:100CD00010B5FFF7DBFF054949680722D202114032
:100CE000C90A034A515CC84010BD00000010024010
:100CF00014000020F8B51B4840680C210840042867
:100D000002D0082828D101E0174C27E01548406898
:100D1000012109040840002809D012484068490010
:100D20000840002801D0114802E00F4800E01048B8
:100D300007460C480068800E451C0A4800680721D9
:100D400009050840000D461C3946694308463146EE
:100D5000FFF7F0F9044601E0034C00BF00BF204656
:100D6000F8BD00000010024000127A0000093D00AA
:100D7000001BB7007FB505460C4601210803FFF7AD
:100D800051FF684600F0FAF804216846017000211E
:100D9000418008210171022141710021817101818D
:100DA000448101736946284600F0A2F800212846D4
:100DB00000F066F80121284600F062F8012128467B
:100DC00000F08AF87FBD08B501214804FFF70AFF4B
:100DD000002207210920C006FFF745FE002204215A
:100DE0000920C006FFF73FFE002206210920C006A9
:100DF000FFF739FE002205210920C006FFF733FE68
:100E000000F022FC6846FFF74FFE10216846018083
:100E1000012181701821C17069460920C006FFF7C1
:100E2000D5FD202168460180012181701821C17003
:100E300069460920C006FFF7C9FD80216846018088
:100E4000012181701821C17069460920C006FFF791
:100E5000BDFD402168460180012181704821C1709B
:100E600069460920C006FFF7B1FD08BD70B504460C
:100E70000D46FFF7A8FF29462046FFF77BFF70BD10
:100E8000002906D0012909D002290CD0032914D148
:100E90000EE0826910231A4382610FE08269082301
:100EA0001A4382610AE0826910239A43826105E055
:100EB000826908239A43826100E000BF00BF704747
:100EC000002904D0826A52085200826203E0826ADA
:100ED00001231A4382627047002904D082690123EA
:100EE0001A43826103E082695208520082617047AE
:100EF0004A880123DB029A4203D182691A43826144
:100F000004E082690123DB029A4382618269012342
:100F10009B029A430B891A438261826904239A4394
:100F20000B781A438261C26904239A430B7B1A43EC
:100F3000C261C26902239A434B791A43C261C269F2
:100F4000520852008B791A43C261C26908231A43BE
:100F5000C261026A120C12044B891A4302620A79B6
:100F6000202A04DBC26A52095201C26205E0C26A49
:100F7000520952010B791A43C26270470021017075
:100F800041800821017100214171012181710021FD
:100F90000181022141810021017370477FB5044620
:100FA00000256068002811D02068C500012168462E
:100FB000017105702804010E684641702802010E77
:100FC00068468170280E6946C8700BE02088450588
:100FD0000021684601712802010E68468170280EC2
:100FE0006946C870617A68468171217A417100262C
:100FF00006E020460A30815D01A803308155761C49
:10100000082EF6D36846FFF7EFFB7FBD10B500F062
:1010100001F810BD7FB50020039002905948006888
:101020000121090408435749086000BF554800687A
:1010300001214904084002900398401C0390029843
:10104000002804D10521090203988842EED14D48B9
:101050000068012149040840002809D001200290BD
:101060007D252D0100BF28466D1E0028FBD101E023
:1010700000200290029801287ED14348434908602D
:101080004348006810210843414908600846006849
:10109000C008C00008603D490968481E3D49FFF787
:1010A00049F804463A480068204339490860354801
:1010B00040683449486008464068486033480068E2
:1010C0003549884207D92F484068012189020843E1
:1010D0002C49486006E02B484068012189020843FA
:1010E0002849486027484068032109048843254966
:1010F0004860084600680003000B08600846406826
:101100000121090408431F4948606B4601AA1F4892
:1011100001682248FFF799F81A4800680003000B9D
:101120001849086069460879800609780905084366
:1011300014490968084313490860084600680121FA
:10114000090608430F49086000BF0E4800680121E6
:10115000490608400028F8D00A4840688008800006
:10116000084948600846406802210843054948602C
:1011700000BF0448406800E003E00C210840082854
:10118000F7D17FBD0010024000D8B8050000002054
:101190000020024000366E010051250200127A0044
:1011A00010B500F03FF910BD10B5164800680121D8
:1011B000084314490860084640681349084011492B
:1011C000486008460068114908400E490860084612
:1011D00000680121890488430A490860084640687C
:1011E000C321090488430749486008460068084944
:1011F0000840044908609F2000048860FFF706FF4C
:1012000010BD0000001002400CC0FFF8FFFFF6FE0A
:10121000FFFF8F0010B50121880700F0ABF8002810
:1012200021D00121880700F095F802210E48FFF730
:101230002EFC002804D002210B48FFF731FC03E00C
:1012400002210948FFF72EFC01210748FFF71FFC88
:10125000002804D001210448FFF722FC03E001210B
:101260000148FFF71FFC10BD0004004810B5012124
:101270000D4800F07FF8002815D001210A4800F041
:1012800069F8012149020948FFF701FC002805D04F
:10129000012149020548FFF703FC04E0012149024E
:1012A0000248FFF7FFFB10BD0004004000040048A7
:1012B0003EB504460D4601210220FFF7A3FC684617
:1012C00000F0A6F801946846058000210181817232
:1012D000817069460A4800F065F80121084800F06D
:1012E00029F80121064800F031F80122114604488E
:1012F00000F04DF80121024800F030F83EBD00003A
:101300000004004010B5084908480068FEF712FFC5
:10131000401E84B221460648FFF7CAFF0122002181
:101320001020FFF709FC10BD40420F000000002014
:10133000E7030000002904D0026880231A430260FA
:1013400003E0026880239A430260704702698A437F
:101350000261704702698A4302617047002904D024
:10136000026801231A43026003E002685208520037
:1013700002607047024610690840002805D0D06816
:101380000840002801D0012070470020FCE7002A17
:1013900003D0C3680B43C36002E0C3688B43C360E0
:1013A00070470000026803231B029A430B891A430B
:1013B0000260134A904206D001229207904202D066
:1013C000104A904205D1026870239A438B781A43E1
:1013D00002600B4A904205D00B4A904202D00B4A61
:1013E000904205D1026B120A12028B7A1A430263F1
:1013F0004A68C2620A888262012242617047000024
:10140000002C01400004004000440140004801401D
:101410000021C943416000210180018181708172F6
:101420007047000004480068002804D002480068A3
:10143000401E0149086070472400002010B50221B9
:10144000184800F0A0F800282AD00221154800F022
:1014500089F81548C08C642802D100211248C18443
:1014600018E01148C08C642802D100210E48C184C4
:101470000C4800F0D7F8C1B20B48C08C0A4A403A79
:1014800011540948C08C401C81B20748C1840748E8
:10149000FFF70CFA0221034800F06CF80028E0D1B5
:1014A00010BD00000038014090000020B80000206E
:1014B00010B586B004461B216846017003214170B7
:1014C00001218170FFF746FB01218803FFF7AAFB8A
:1014D00001214804FFF786FB01220921C806FFF716
:1014E000C2FA01220A210920C006FFF7BCFA01A8AE
:1014F00000F09CF80194302168460181002141816F
:10150000818101821821C18101A9154800F04EF89E
:1015100001220221124800F03FF80121104800F09A
:1015200023F805A8FFF7C0FA012149026846818225
:10153000012181751821C17505A90920C006FFF791
:1015400045FA01218902684681820421C17505A9F5
:101550000920C006FFF73AFAFFF730FB06B010BDCE
:1015600000380140416170478269520852000A43C5
:1015700082617047024690680840002801D001202F
:1015800070470020FCE70246D0680840002801D0E0
:10159000012070470020FCE7002A03D003690B43B9
:1015A000036102E003698B430361704770B5044631
:1015B0000D460026E0693021884329790843E0611F
:1015C000E06944218843A9790843E061E069800823
:1015D0008000297A0843E061A0691821884369895D
:1015E0000843A061A06904218843297B0843A061C6
:1015F0000B48844203D1FFF76BFB064602E0FFF77E
:1016000055FB064630462968FEF794FD0009206226
:1016100030462968FEF78EFD0007000F606270BD3E
:101620000038014001464868C0B270474B21C901EB
:101630000160302101710021817101721821418105
:10164000002101737047000010B500210148FFF729
:1016500037FC10BD003001400FB410B503A9044B96
:10166000044A029800F054F810BC08BC04B01847B3
:10167000551A00084C00002010B5002819DB1A4A42
:1016800003231B02D21883089B00D2588307DC0E69
:10169000FF23A3409A438B071B0E8407E40EA3404D
:1016A0001A43114B032424021B198408A4001A5165
:1016B00018E00E4A03071B0F083B9B089B00D258FB
:1016C0008307DC0EFF23A3409A438B071B0E84077E
:1016D000E40EA3401A43054B0407240F083CA4085A
:1016E000A4001A5110BD000000E100E01CED00E074
:1016F00002E008C8121F08C1002AFAD170477047DB
:10170000002001E001C1121F002AFBD17047000038
:10171000FFB58FB00F460446002606E025280AD004
:10172000129A11999047641C761C20780028F5D1F4
:10173000304613B0F0BD00250121A14A009500E01C
:101740000543641C23780846203B98401042F7D19B
:1017500020782E2815D1042005436078641C2A289F
:101760000AD101CF641C00900BE000990A2251437A
:1017700030394018641C009020780146303909291E
:10178000F3D920786C280ED004DC4C2813D06A28BA
:1017900012D104E074280ED07A280DD10BE001207C
:1017A0004005054307E00121090562780D438242A7
:1017B00001D16D18641C641C2078864669284AD0C3
:1017C00008DC0028B4D058286DD0632810D06428D5
:1017D00008D140E070286BD0732812D0752860D0F3
:1017E000782860D0129A704611999047761CE5E0EF
:1017F0003878694608720020487202A801900120DA
:1018000003E0386801900020C0433F1D69070CD5F4
:10181000002500E06D1C00998D420FDA8542F9DB4E
:101820000199495D0029F5D108E0002500E06D1C13
:101830008542FCDB0199495D0029F8D1761907E062
:10184000019801990078491C0191129A11999047C9
:101850006D1EF5D2B2E00A20029000216802400F0E
:10186000039102280CD001CFC117844600290DDA5C
:101870006246084652420021814194462D2008E0EC
:10188000FF1DFF08FF0003CF8446EFE7280504D5BE
:101890002B206A46107401203CE0E8073AD0202053
:1018A000F7E70A2000E0102000210391029007E0F2
:1018B000102002900021042005430820039100908D
:1018C0006802400F022810D001CF0021844600207A
:1018D0000D9028071FD5704670280CD0029A102052
:1018E000039B42401A430CD015E0FF1DFF08FF0088
:1018F00003CF8446EBE740206A46107401200D9028
:101900000CE06046084306D030206A4610747046EA
:10191000507402200D907046582804D029A00190E0
:101920000DA80E900DE02CA0F9E76046039B029AEB
:10193000FEF728FC019B84469B5C0E9A521E0E9279
:10194000137060460843F0D10E9805A9081A20309C
:101950000190680701D5009801E0012000900199ED
:10196000884203DD01460198081A00E000200025A6
:10197000009006E004A8129A405D119990476D1CF2
:10198000761C0D988542F5DB04E0129A30201199FF
:101990009047761C0099481E00900029F5DC08E06D
:1019A0000E980E990078491C0E91129A1199904741
:1019B000761C0199481E01900029F1DC641CB4E6F4
:1019C0000928010030313233343536373839616215
:1019D00063646566000000003031323334353637D9
:1019E000383941424344454600000000C17800298F
:1019F00025D017490322120289180278921092000A
:101A0000895802789207D30EFF229A409143827838
:101A10009207120E03789B07DB0E9A4011430C4A83
:101A200003231B02D21803789B109B00D15001782E
:101A3000CA06D20E01219140054A116007E00178E3
:101A4000CA06D20E01219140014A803211607047CE
:101A500000E100E000BF054A9268D207D20F002AD9
:101A6000F9D0C2B2014B1A60704700000038014043
:101A7000FEF782FFFFF72EF8E1204002FFF718FD86
:101A8000FFF740FC20211548FFF7F0F91448FEF756
:101A900035FD22E01348007800281ED000201149AF
:101AA00008701148016811A0FFF7D6FD00240BE073
:101AB0000D48C01D015D12A0FFF7CEFD0A48C01DF4
:101AC000015D10480155641C082CF1DB0EA0FFF7E6
:101AD000C3FD0C480A38FFF761FADBE7003001402C
:101AE00040420F002C0000201C01002043414E49C1
:101AF000443A307825782020446174610000000069
:101B000025780000420000200D0A00002C1B000870
:101B10000000002050000000F01600087C1B0008A8
:101B200050000020E00400000017000800D8B805AD
:101B3000000000000000000001020304060708097D
:101B40000000000001020304010203040607080963
:101B50000000000000000000000000000000000085
:101B60000000000002000000000000000008010268
:0C1B700003040506070800000000000048
:04000005080000C12E
:00000001FF
